:020000040010EA
:100000000080002059011000513C1000533C1000AA
:10001000553C1000573C1000593C100000000000F7
:100020000000000000000000000000005B3C100029
:100030005D3C1000000000005F3C1000613C1000BF
:10004000633C1000633C1000633C1000CD021000C4
:10005000633C1000633C1000633C1000633C1000E4
:10006000633C1000711E1000633C1000633C1000E4
:10007000633C1000633C1000633C1000633C1000C4
:10008000633C1000633C1000633C1000633C1000B4
:10009000633C1000633C1000633C1000633C1000A4
:1000A000633C1000633C1000633C1000633C100094
:1000B000633C1000633C1000633C1000633C100084
:1000C000633C1000633C1000633C1000633C100074
:1000D000633C1000633C1000633C1000633C100064
:1000E000633C1000633C1000633C1000633C100054
:1000F000F1781000F1781000F1781000F17810001C
:10010000F1781000F1781000D5161200F178100087
:10011000F1781000633C1000633C1000633C100059
:10012000633C1000633C1000633C1000633C100013
:10013000633C1000633C1000633C1000633C100003
:10014000633C1000633C1000633C1000633C1000F3
:10015000633C1000633C100068466FF382008546E4
:100160000148804701480047093D1000413A10000E
:1001700080B483B000AF0346FB7197F90730002BC2
:100180000BDBFB7903F01F02064997F907305B0987
:10019000012000FA02F241F8232000BF0C37BD46CF
:1001A00080BC704700E100E080B483B000AF7860AD
:1001B000396005497B683A6841F8232000BF0C3755
:1001C000BD4680BC704700BF0007004080B483B0CC
:1001D00000AF7860044A7B6803F03F03136600BFFA
:1001E0000C37BD4680BC70470012004080B483B01D
:1001F00000AF7860054A7B6823F07F4323F0FE035D
:10020000136700BF0C37BD4680BC7047001200402A
:1002100080B483B000AF7860044A7B6803F01F03AA
:10022000536700BF0C37BD4680BC704700120040CA
:1002300080B400AF034B4FF49852DA6700BFBD465D
:1002400080BC70470012004080B400AF024BDB6FEF
:100250001846BD4680BC70470012004080B483B091
:1002600000AF7860396005497B6810333A6841F81F
:10027000232000BF0C37BD4680BC704700120040F1
:1002800080B582B000AF78603F210120FFF78CFF7E
:100290000F20FFF79BFF1D20FFF7BAFF0A48FFF76B
:1002A000A5FF67210620FFF7D9FF17210420FFF7DC
:1002B000D5FF77210020FFF7D1FF0320FFF758FF7C
:1002C00000BF0837BD4680BD0066640080B582B0BF
:1002D00000AFFFF7B9FF78607B6803F01003002BD5
:1002E00002D0FFF7A5FF03E0034B1B69034A13602D
:1002F00000BF0837BD4680BD00120040CC00002082
:1003000080B483B000AF7860396005497B683A6893
:1003100041F8232000BF0C37BD4680BC704700BFAA
:100320000007004080B582B000AF7860084B1B69C1
:1003300023F00F03064A43F009031361054A7B6863
:10034000136003F0FBFC00BF0837BD4680BD00BF53
:10035000000500400001004080B400AF094B4FF0A1
:10036000FF32C3F88020074B4FF0FF32C3F88420E0
:10037000044B4FF0FF32C3F8882000BFBD4680BC5D
:10038000704700BF00E100E080B400AF094B4FF0C0
:10039000FF32C3F88021074B4FF0FF32C3F88421AE
:1003A000044B4FF0FF32C3F8882100BFBD4680BC2C
:1003B000704700BF00E100E080B584B000AF0123CA
:1003C000FB60FB6883F3108800BFFFF7C5FFFFF7F2
:1003D000DBFF454B43F23E121A6300BF434B1B6BDE
:1003E000002BFBD0424B00229A70424B03221A7022
:1003F000414B03F1007303F510331A460123C2F891
:100400008C3F3D4B03F1007303F510331A46002374
:10041000C2F89C3F00BF384B03F1007303F5103363
:10042000D3F8CC3F012BF6D1344B03F1007303F525
:1004300014331A4600239360304B03F1007303F525
:1004400014331A46012393612D4B03F100731A46AE
:100450000123C2F8B0392B4B01221A602A4BD3F882
:10046000AC3023F48833284A43F48053C2F8AC30CC
:10047000264B0622DA7000BF254B03F1077303F504
:100480004433D3F8C83B012BF6D10220FFF74AFFD3
:10049000204B07225A601F4B40F20172DA601E4B5C
:1004A0001E4A1A6002210620FFF72AFF02210120BE
:1004B000FFF726FF01F0E2FC01F006F8002002F051
:1004C00091FE00F02DF800237B607B6883F3108899
:1004D00000BF0023BB60BB6883F3138800BF00BF6D
:1004E0001037BD4680BD00BF0007004000E8004255
:1004F0000413004008130040141300401813004078
:1005000050000040800A004200000140BC00014051
:10051000E40001400001004000140040810001009F
:1005200080B500AF02220021064822F0C3FD064933
:10053000042021F09DFB00F019FA00F0BDF800BF87
:1005400080BD00BFD40000209C41120080B483B065
:1005500000AF78600B4A7B6852F82330DBB203F0BF
:100560003C03002B09D1074A7B6852F82330054928
:1005700043F001027B6841F8232000BF0C37BD46E1
:1005800080BC70470007004080B483B000AF786043
:100590000B4A7B6852F82330DBB203F03C03002B9C
:1005A00009D1074A7B6852F82330054983F00102DC
:1005B0007B6841F8232000BF0C37BD4680BC7047E4
:1005C0000007004080B584B000AFB96011461A46FC
:1005D0000346FB810B46BB811346FB80142204219A
:1005E00040F6017021F038FC084B1B780133DAB279
:1005F000064B1A70054B5B780133DAB2034B5A7025
:10060000002318461037BD4680BD00BFD40000202F
:1006100080B584B000AFB96011461A460346FB812D
:100620000B46BB811346FB800A4B5B79042B03D03E
:100630000620FFF7A9FF02E00620FFF787FF14223C
:10064000042140F6027021F007FC00231846103701
:10065000BD4680BD6805002080B485B000AFB9609C
:1006600011461A460346FB810B46BB811346FB80AD
:10067000002318461437BD4680BC704780B483B051
:1006800000AF78600B4A7B6852F82330DBB203F08E
:100690003C03002B09D1074A7B6852F823300549F7
:1006A00083F001027B6841F8232000BF0C37BD4670
:1006B00080BC70470007004080B500AF36220021A3
:1006C000054822F0F7FC044B01225A71024B01222B
:1006D0009A7100BF80BD00BFDC00002080B582B0F1
:1006E00000AF0C230422082140F61B5021F0F4F93E
:1006F00078607B681B221A707B6800225A707B68C6
:1007000025225A807B6804229A807B680022DA8046
:10071000786821F0FBF900BF0837BD4680BD0000B6
:1007200080B584B000AF0346FB71252003F026FF9F
:10073000F860FB68FA791146184603F035FF034666
:1007400019461E2304224FF4145021F0C5F9B86055
:10075000BB6800221A70BB6802330E220749184694
:1007600022F09AFC064B1A78BB685A70B86821F0E0
:10077000CDF900BF1037BD4680BD00BFF600002098
:10078000DC00002080B584B000AFB96011461A4685
:100790000346FB810B46BB811346FB80BB681B787D
:1007A000002B2CD1BB685B78002B0BD1BB689B78EE
:1007B0001946BB681A79144B0B445A700020FFF796
:1007C0005DFF1CE0BB685B78012B09D1BB689A8890
:1007D000BB689B781946D2B20B4B0B44DA700EE023
:1007E000BB685B78022B0AD1BB689B780649013352
:1007F000BA68DB000B4404321068516803C300235D
:1008000018461037BD4680BDDC00002080B485B09E
:1008100000AFB96011461A460346FB810B46BB8107
:100820001346FB80BB685B781946BB681A78044B9B
:100830000B445A70002318461437BD4680BC7047DD
:10084000DC00002080B485B000AFB96011461A46C4
:100850000346FB810B46BB811346FB80BB681B78BC
:10086000002B0BD1BB685B781A46BB685B781946D6
:10087000054B13445A79044B0B44DA700023184695
:100880001437BD4680BC7047DC00002080B586B0C0
:1008900000AFB96011461A460346FB810B46BB8187
:1008A0001346FB80FB881B0A9BB2FB75BB681B7859
:1008B000002B1BD1BB6802330E221946104822F0D0
:1008C000EBFB104B01221A760E4B5A79FB7D00216F
:1008D000184600F019F80B4B1B78022B06D1094B78
:1008E0009A79FB7D0121184600F00EF8FB7D184631
:1008F00001F060F9002318461837BD4680BD00BFDF
:10090000F6000020DC00002080B584B000AF034674
:10091000FB710B46BB7113467B71252003F02EFE45
:10092000F860FB68FA791146184603F03DFE03466D
:1009300019460423042242F2045021F0CDF8B86095
:10094000BB79094A13447A795A71BB68BA799A70AB
:100950007B799AB2BB681A80B86821F0D7F800BFDB
:100960001037BD4680BD00BFDC00002080B500AF61
:100970004FF48A620021064822F09CFB044B0122BE
:1009800083F8F421024B012283F81C2400BF80BDB0
:1009900014010020B0B588B000AF0346FB711A4BBC
:1009A00007F10C040FCB84E80F00FB791B021BB28C
:1009B00043F007031BB299B21823042240F6034008
:1009C00021F08AF8F861FB6903221A70FB69102292
:1009D0005A70FB6900225A80FB6901229A80FB69E8
:1009E0004FF6FF72DA80FB6908331D4607F10C04ED
:1009F0000FCC28606960AA60EB60F86921F086F886
:100A000000BF2037BD46B0BD54421200B0B590B013
:100A100002AFB96011461A460346FB810B46BB8103
:100A20001346FB807F4B07F114041D460FCD0FC406
:100A300095E80F0084E80F00FB881B0A9BB287F83B
:100A4000363097F83630184601F074F9034687F8C7
:100A5000353097F83530FF2B01D10023DDE0FA88DF
:100A600097F836307049002002F0F0F8BB681B8818
:100A7000002B00F0D18097F835306C4A4FF40A71A2
:100A800001FB03F3134403F5FD731B78012B00F204
:100A9000C380002387F837309BE0BB685B79102B5D
:100AA00040F09280BB68981D97F8373007F1140228
:100AB0001B0113441022194622F0DEFA0346002BD4
:100AC00040F0828097F8353097F8352057494FF439
:100AD0000A7000FB02F20A4402F5FD721278114618
:100AE000162201FB02F24FF40A7101FB03F31344D7
:100AF00003F5FC734D4A134404331622B9681846B3
:100B000022F0CAFA97F83530484A4FF40A7101FBCF
:100B100003F3134403F5FD731B781C4697F8353037
:100B200097F8352041494FF40A7000FB02F20A445D
:100B300002F5FD72127810463C49162200FB02F2C3
:100B40004FF40A7000FB03F313440B4403F5FE73E8
:100B50001B881D4697F8353097F8352033494FF4F8
:100B60000A7000FB02F20A4402F5FD721278104688
:100B70002E49162200FB02F24FF40A7000FB03F329
:100B800013440B4403F5FF731B8800932B46224646
:100B90002749002002F05AF897F8353023494FF4DE
:100BA0000A7203FB02F20A4402F5FD721278013266
:100BB000D0B21E4A4FF40A7101FB03F3134403F54C
:100BC000FD7302461A7009E097F83730013387F851
:100BD000373097F83730012B7FF65FAF97F8353015
:100BE000124A4FF40A7101FB03F3134403F5FD733A
:100BF0001B78022B10D197F835300C4A4FF40A714C
:100C000001FB03F3134403F2F91302221A7097F85D
:100C10003630184600F0CEFF002318463837BD4660
:100C2000B0BD00BFB842120064421200140100209F
:100C30008C42120080B586B000AFB96011461A46EA
:100C40000346FB810B46BB811346FB80FB881B0AD6
:100C50009BB2FB75FB7D184601F06CF80346BB7533
:100C6000BB7DFF2B01D1002362E0BB681B780D2BFD
:100C70001DD1BB685B78002B0AD1BB7D2E4A4FF497
:100C80000A7101FB03F3134403F5FA7301221A708E
:100C9000BB685B78462B0AD1BB7D274A4FF40A71AB
:100CA00001FB03F3134403F5FA7301221A70BB68C6
:100CB0005B78002B3BD0BB681B78032B1FD1BB6834
:100CC0005B780A2B1BD1BB7D1B4A4FF40A7101FBD9
:100CD00003F3134403F2F9131B78012B0FD0BA7DF1
:100CE00016491346DB0013445B000B4405331B78A5
:100CF000042B04D0FB7D184600F05CFF17E0BB68B6
:100D00001B78052B13D1BB685B780A2B0FD1BB7DF9
:100D1000094A4FF40A7101FB03F3134403F2F91378
:100D20001B78012B03D1FB7D184600F043FF002305
:100D300018461837BD4680BD140100206805002004
:100D400080B588B002AFB96011461A460346FB81F0
:100D50000B46BB811346FB80FB881B0A9BB2FB75CD
:100D6000FB7D184600F0E6FF0346BB75BB7DFF2BFD
:100D700001D100236FE0FA88F97DBB7D00930B461B
:100D80003749002001F062FFBB681B79102B61D14D
:100D9000BB7D344A4FF40A7101FB03F3134403F2A1
:100DA000F91301221A70BB7DBA6810882D4A4FF4DE
:100DB0000A7101FB03F3134402461A80BB7DBA6833
:100DC0005088284A4FF40A7101FB03F3134402339D
:100DD00002461A80BB7D234A4FF40A7101FB03F3DC
:100DE000134403F5FD7300221A70FB7D1B021BB236
:100DF00043F007031BB299B20A23042240F60340D2
:100E000020F06AFE38613B6905221A703B690222B4
:100E10005A703B6900225A80BB7D124A4FF40A7116
:100E200001FB03F313441A883B699A80BB7D0D4A8A
:100E30004FF40A7101FB03F3134402331A883B6930
:100E4000DA803B6900221A723B6900225A723869C3
:100E500020F05CFE002318461837BD4680BD00BF59
:100E6000D84212001401002080B586B000AFB960EE
:100E700011461A460346FB810B46BB811346FB8095
:100E8000BB681B881A46BB689B882749002001F075
:100E9000DDFE00237B610CE0BA687B6913440633F6
:100EA0001B781A462149002001F0D0FE7B690133EE
:100EB0007B61BB689B881A467B699342ECDB1C49CB
:100EC000002001F0C3FEFB881B0A9BB2FB74FB7C75
:100ED000184600F02FFF0346BB74BB7CFF2B01D1EB
:100EE00000231DE0BB7C134A4FF40A7101FB03F39E
:100EF000134403F5FF731A88BB681B889A420ED10E
:100F0000BB7C4FF40A7202FB03F30A4A1344181D18
:100F1000BB68991DBB689B881A4622F0BDF8002368
:100F200018461837BD4680BD1043120030431200EA
:100F3000384312001401002080B588B000AFB960BA
:100F400011461A460346FB810B46BB811346FB80C4
:100F50000023FB61BB689B881A46BB685B886249BB
:100F6000002001F073FE00237B610CE0BA687B690E
:100F7000134406331B781A465C49002001F066FED4
:100F80007B6901337B61BB685B881A467B6993424E
:100F9000ECDB5749002001F059FEFB881B0A9BB28D
:100FA000FB74FB7C184600F0C5FE0346BB74BB7C9B
:100FB000FF2B01D1002393E0BB685B88002B04D199
:100FC0004C4B1B68002B00F08A80BB7C4A4A4FF4D4
:100FD0000A7101FB03F3134403F5FF731A88BB681E
:100FE0009B889A427BD1BB7C4FF40A7202FB03F3CD
:100FF000414A1344181DBB68991DBB685B881A469B
:1010000022F04AF80023BB6118E03A4B1B681B79B9
:101010001A46384B1B6805331946104601F034F860
:101020000346012B08D0334B1B68184601F0E2F849
:101030000346304A136001E00123BB612D4B1B685E
:10104000002B02D0BB69002BDFD0BB69002B12D173
:10105000BB685B881846BB7C4FF40A7202FB03F343
:10106000254A13440433194601F00EF80346012BB8
:1010700001D0002334E01F4B1B68002B1DD01D4BFB
:101080001B68FB6102E0FB691B68FB61FB691B6875
:10109000002BF8D1BB685B88DAB2BB7C4FF40A71D5
:1010A00001FB03F314490B4404331946104601F0C5
:1010B0007DF80246FB691A6011E0BB685B88DAB212
:1010C000BB7C4FF40A7101FB03F30B490B4404335F
:1010D0001946104601F06AF80346064A13600023D9
:1010E00018462037BD4680BD4043120030431200F1
:1010F00038431200640500201401002080B584B03C
:1011000000AF396011461A460346FB710B46BB809F
:101110001346BB71FB791B021BB243F007031BB2E2
:1011200099B23B8B0C339BB2042240F60A4020F06C
:10113000D3FCF8603B7F0C2B06D1FB680C221A70A5
:10114000FB6801225A7008E03B7F0D2B05D1FB683C
:101150000D221A70FB6800225A70FB68BA889A80C8
:10116000FB6800225A80BB799AB2FB68DA80FB6880
:1011700000225A81FB683A8B1A81FB680C333A8B48
:101180003968184621F088FFFB79184600F0D2FD37
:101190000346FB72FB7AFF2B0ED0FB7A084A4FF412
:1011A0000A7101FB03F3134403F5FA7300221A706A
:1011B000F86820F0ABFC00E000BF1037BD4680BDF2
:1011C0001401002090B585B000AF044608461146D2
:1011D0001A462346FB710346BB800B46BB71134680
:1011E0007B80FB791B021BB243F007031BB299B251
:1011F0000A23042240F6084020F06EFCF860FB68E9
:1012000009221A70FB6800225A80FB68BA889A800B
:10121000FB687A881A81FB680022DA80F86820F07F
:1012200075FC00BF1437BD4690BD0000B0B590B04E
:1012300000AF03460A46FB711346BB80FB79384A70
:101240004FF40A7101FB03F3134403F2F9131B7803
:10125000022B60D1FA7933491346DB0013445B005B
:101260000B4402331B7887F83B302F4B07F11804EF
:101270001D460FCD0FC495E80F0084E80F00BB8812
:1012800007F118021B01D11807F1080310221846B4
:1012900021F002FF0023FB6339E0FB79FA6B162192
:1012A00001FB02F24FF40A7101FB03F3134403F54F
:1012B000FC731B4A134403F10A0107F108031022CF
:1012C000184621F0D9FE0346002B1DD1FB791449A5
:1012D000FA6B162000FB02F24FF40A7000FB03F3D6
:1012E00013440B4403F5FF731B883B873B8F1A465F
:1012F0000E49002001F0AAFC398F97F83B008023AB
:101300000022FFF75FFF07E0FB6B0133FB63FB6B22
:10131000012BC2DD00E000BF4037BD46B0BD00BFBD
:101320001401002068050020B84212006443120036
:10133000B0B594B002AFBA601A460346FB730B46D1
:10134000BB811346FB80FB7B3B4A4FF40A7101FBD8
:1013500003F3134403F2F9131B78022B67D1FA7BD2
:1013600036491346DB0013445B000B4402331B7801
:1013700087F84330324B07F120041D460FCD0FC4D0
:1013800095E80F0084E80F00BB8907F120021B01DC
:10139000D11807F110031022184621F07DFE00231A
:1013A0007B6440E0FB7B7A6C162101FB02F24FF478
:1013B0000A7101FB03F3134403F5FC731E4A134443
:1013C00003F10A0107F110031022184621F054FE20
:1013D0000346002B24D1FB7B17497A6C162000FBB7
:1013E00002F24FF40A7000FB03F313440B4403F5BD
:1013F000FF731B88A7F84030B7F840301A461149F0
:10140000002001F023FCB7F8402097F843000D239B
:101410000193FB8800930023B968FFF76FFE07E094
:101420007B6C01337B647B6C012BBBDD00E000BF78
:101430004837BD46B0BD00BF14010020680500203C
:10144000B84212007C43120080B483B000AF034660
:10145000FB7197F90730002B0BDBFB7903F01F02C0
:10146000064997F907305B09012000FA02F241F8BA
:10147000232000BF0C37BD4680BC704700E100E070
:1014800080B485B000AF78607B6800221A707B68FA
:101490001B78012B10D10B4A07F1080392E80300D7
:1014A0001860043319807B6801331A4607F108037A
:1014B000186810609B88938000BF1437BD4680BCBD
:1014C000704700BFA843120080B584B000AF5B4AEC
:1014D0003B1D92E80300186004331980012021F0BD
:1014E00093FE002020F006F9002003F073FA2F206D
:1014F000FFF7AAFF2E20FFF7A7FF3020FFF7A4FF7A
:101500003120FFF7A1FF3420FFF79EFF3220FFF7C5
:101510009BFF3320FFF798FF2C20FFF795FF2D202E
:10152000FFF792FF24220021454821F0C3FD444BE0
:1015300000225A71424B0022DA75414BFF229A7009
:101540003F4BFF221A753F4B3A1D92E8030018608B
:10155000043319803C4B01221A70302021F07CFDAD
:1015600003461A46394B1A60384B1B6803221A701F
:10157000364B1B6805225A70344B1B680433314AC2
:101580001068186092889A80304B1B682E4A127837
:101590009A762E4B1B6843F698225A802B4B1B6879
:1015A0000A3310220021184621F084FD274B1B68C6
:1015B0000022DA76254B1B6800229A83234B1B6896
:1015C0000022DA83214B1B684FF40072DA841F4B30
:1015D0001B684FF400721A851C4B1B6880221A840A
:1015E0001A4B1B68FB225A84184B1B6840F64802B2
:1015F0009A84164B1B68002283F82E20134B1B681D
:10160000002283F82F20114B1B68002283F82A2028
:101610000E4B1B6800229A8501230422082140F604
:10162000025020F059FAF860FB6801221A70F8683D
:1016300020F06CFA00BF1037BD4680BDB0431200E9
:10164000680500208C0500209205002094050020EC
:1016500080B500AF0C4BDB781A460C4B53F82230A8
:10166000002B0ED0084BDB781A46084B53F822307B
:101670009847054BDB780133DAB2034BDA7001236C
:1016800000E00023184680BD680500209443120046
:1016900080B584B000AFB96011461A460346FB819D
:1016A0000B46BB811346FB800C4B5B79012B0FD1A2
:1016B000FFF7CEFF034683F00103DBB2002B07D018
:1016C000064B02225A71054B0222DA7500F006FA27
:1016D000002318461037BD4680BD00BF68050020B6
:1016E00080B586B000AFB96011461A460346FB814B
:1016F0000B46BB811346FB80BB681B78012B02D0D5
:10170000032B2DD040E0BB685B78002B39D1302310
:101710000422082140F6045020F0DEF978611D4BC8
:101720001B6830221946786921F0B6FC194B1B68FA
:10173000184621F099FC786920F0E8F91422042178
:1017400040F6017020F088FB1422042140F602705C
:1017500020F082FB02220421002020F07DFB10E01B
:101760000D4B01225A71FFF773FF034683F001030B
:10177000DBB2002B07D0084B02225A7100F0AEF901
:1017800001E000BF00E000BF002318461837BD4647
:1017900080BD00BF940500206805002080B588B09A
:1017A00000AFB96011461A460346FB810B46BB8168
:1017B0001346FB80FB881B0A9BB2FB75FF23FB775C
:1017C000FA7DFB885249002001F040FA0023BB61FA
:1017D00023E0BB6803F10A00BA691346DB009B1AD9
:1017E00010334C4A134405330622194621F044FCB9
:1017F0000346002B0ED1BB68597A4648BA69134696
:10180000DB009B1A03441B331B78994202D1BB694E
:10181000FB7705E0BB690133BB61BB69012BD8DDF8
:10182000FB7FFF2B01D100236EE0FB7DFF2B68D0F7
:10183000FA7F39491346DB0013445B000B44053340
:1018400004221A70BB681B88FA7FD8B2324913464B
:10185000DB0013445B000B44023302461A70FA7F2C
:10186000BB6858882C491346DB0013445B000B44CB
:10187000063302461A80FA7FBB68988826491346C9
:10188000DB0013445B000B440A3302461A80FA7FE4
:10189000BB68D88820491346DB0013445B000B4427
:1018A000083302461A80FB7D1B021BB243F009037A
:1018B0001BB299B22C23042240F6026020F00CF9EE
:1018C00038613B69002283F828203B69002283F8B5
:1018D0002920386920F01AF9FB7DFB21184600F019
:1018E000B7F9FB7D184600F0DDF9FB7D02220221ED
:1018F000184600F0F7F9FB7D1946012000F01EF9AB
:1019000001E000F0EBF8002318462037BD4680BD0B
:10191000B8431200040000206805002080B485B0A0
:1019200000AFB96011461A460346FB810B46BB81E6
:101930001346FB80002318461437BD4680BC704711
:1019400080B586B000AFB96011461A460346FB81E8
:101950000B46BB811346FB80FB881B0A9BB2FB75C1
:10196000FB7D184600F0E6F90346BB75BB7DFF2BF7
:1019700001D100231BE0BA7D0F491346DB0013445D
:101980005B000B44053302221A70BA7D0A491346E4
:10199000DB0013445B000B440233FF221A70FB7D13
:1019A0001946002000F0CAF800F098F80023184605
:1019B0001837BD4680BD00BF6805002080B586B0E1
:1019C00000AFB96011461A460346FB810B46BB8146
:1019D0001346FB80FB881B0A9BB2FB75FB7D1846F8
:1019E00000F0A8F90346BB75BB7DFF2B01D1002396
:1019F00024E0BA7DBB68188812491346DB00134403
:101A00005B000B440C3302461A80BA7DBB685888D1
:101A10000C491346DB0013445B000B440E330246B3
:101A20001A80BA7DBB68988806491346DB001344C8
:101A30005B000B44103302461A8000231846183707
:101A4000BD4680BD6805002080B586B000AFB96096
:101A500011461A460346FB810B46BB811346FB80A9
:101A6000FB881B0A9BB2FB75FB7D184600F062F9F0
:101A70000346BB75BB7DFF2B01D1002328E0BA7D57
:101A800015491346DB0013445B000B4402331B78FB
:101A90001B021BB243F009031BB299B206230422B6
:101AA0004FF4616020F018F838613B6901221A7028
:101AB000BB681B885B009AB23B695A80BB685B8835
:101AC0005B009AB23B699A80386920F01FF80023C6
:101AD00018461837BD4680BD6805002080B582B025
:101AE00000AF144B1B7D9BB21A46D200D31A9BB297
:101AF00016339BB20422082140F611501FF0ECFF70
:101B000078600C4B1B7D1A461346DB009B1A16337C
:101B10001A460849786821F0BFFA78681FF0F6FF86
:101B2000054B03225A71044B0322DA7500BF0837B4
:101B3000BD4680BD040000206805002080B584B04B
:101B400000AF03460A46FB711346BB71BB791846CA
:101B500000F0F0F80346FB73FB7BFF2B20D0FB79F2
:101B6000002B0ED0FA7B10491346DB0013445B00B8
:101B70000B44043300221A70BB79184600F01AF89F
:101B80000FE00A4B00221A76FB7B094A4FF40A71D8
:101B900001FB03F3134403F2F91300221A7000E06F
:101BA00000BF1037BD4680BD68050020DC00002066
:101BB0001401002080B584B000AF0346FB71FB79AF
:101BC000184600F0B7F80346FB73FB7BFF2B01D1EF
:101BD000002335E0FA7B1C491346DB0013445B000D
:101BE0000B4404331B781A46184B53F82230002B51
:101BF00025D0FA7B14491346DB0013445B000B44E9
:101C000004331B781A46114B53F82230FA791046E8
:101C10009847FA7B0C491346DB0013445B000B44E6
:101C200004331B780133D8B207491346DB00134451
:101C30005B000B44043302461A70012300E00023CA
:101C400018461037BD4680BD680500209C43120031
:101C500080B584B000AF03460A46FB711346BB80D3
:101C6000FB791B021BB243F009031BB299B2062396
:101C7000042240F62B601FF02FFFF860FB6814224F
:101C80001A70FB68BA885A80BB880E339BB2DB009F
:101C90009AB2FB689A80F8681FF038FF00BF1037CF
:101CA000BD4680BD80B584B000AF0346FB71FB79B3
:101CB0001B021BB243F007031BB299B20423042298
:101CC00040F601401FF008FFF860FB6801221A701F
:101CD000FB6800225A80F8681FF018FF00BF103719
:101CE000BD4680BD80B584B000AF0346FB710B4696
:101CF000BB7113467B71FB791B021BB243F00903D6
:101D00001BB299B20323042240F62F601FF0E4FEB9
:101D1000F860FB6817221A70FB68BA799A70FB6842
:101D20007A795A70F8681FF0F1FE00BF1037BD468F
:101D300080BD000080B483B000AF0346FB710A4B46
:101D40009B78FA799A4201D1002307E0064B1B7D6C
:101D5000FA799A4201D1012300E0FF2318460C379B
:101D6000BD4680BC704700BF6805002080B483B0CA
:101D700000AF0346FB7197F90730002B0BDBFB79B3
:101D800003F01F02064997F907305B09012000FAAA
:101D900002F241F8232000BF0C37BD4680BC7047DB
:101DA00000E100E080B483B000AF7860396005499D
:101DB0007B683A6841F8232000BF0C37BD4680BCE1
:101DC000704700BF0007004080B483B000AF786068
:101DD000054A7B68383352F823309BB218460C37DB
:101DE000BD4680BC704700BF0006004080B483B091
:101DF00000AF7860054A7B6838334FF4F85142F8F9
:101E0000231000BF0C37BD4680BC70470006004061
:101E100080B483B000AF78607B68DB0103F184435A
:101E200003F5404300221A6000BF0C37BD4680BC5A
:101E30007047000080B584B000AFF860B9607A6088
:101E4000FB6843F00F031946B868FFF7ABFFFB6868
:101E500043F03E0319467868FFF7A4FF034A7B6806
:101E6000D36600BF1037BD4680BD00BF00070040ED
:101E700080B400AF00BFBD4680BC704780B582B063
:101E800002AF0020FFF7C4FF0120FFF7C1FF144B92
:101E9000144A1A60144B00221A60042205214FF4E0
:101EA0005450FFF7C7FF114B1B6802224FF4E1317A
:101EB000184601F087FC0120FFF798FF0C4B0193B7
:101EC0000C4B0093F4234FF4F4720B49012001F002
:101ED000C1F80920FFF74AFF00BFBD4680BD00BF23
:101EE00098050020A40500209C050020000000208B
:101EF000E4140020080C004029086A0080B586B070
:101F000000AF78600120FFF75FFF034603F0020394
:101F1000002B08D0594B1B68002B04D1584B5B6C2D
:101F2000564A136029E0574B1B78002B25D1544BA0
:101F3000D3F8A430FB60514B1B68FA689A4206D96B
:101F40004E4B1B68FA68D31A9B087B610FE04B4B22
:101F50001B68FA689A4208D2484B1B68FA68D31A81
:101F600003F5F4639B087B6101E0002382E07B6959
:101F7000B3F5CE7F01D800237CE0414BD3F8A430E9
:101F8000FB603E4B1B68FA689A4201D1002371E066
:101F90003A4B1B68FA689A421DD9384B1B68FA689D
:101FA000D31A9B087B6100233B610FE0334B1B6816
:101FB00019467A683B6913440A781A702F4B1B68DC
:101FC00004332E4A13603B6901333B613A697B69F4
:101FD0009A42EBD34AE0294B1B68FA68D31A03F5FF
:101FE000F4639B087B61264B5A6C244B1B68D31A05
:101FF00003F5F4639B08FB6000233B610FE01F4B7C
:102000001B6819467A683B6913440A781A701B4B9F
:102010001B680433194A13603B6901333B613A6919
:10202000FB689A42EBD3164B5B6C144A13607A69D7
:10203000FB689A421AD000233B6111E00F4B1B68EA
:102040001946FA683B6913447A6813440A781A708F
:102050000A4B1B680433094A13603B6901333B6137
:102060007A69FB68D31A3A699A42E7D3054B002292
:102070001A707B6918461837BD4680BD9C05002044
:1020800000060040A005002080B58CB002AF78604B
:102090003960414B1B68012B4CD1404B1B889BB2D4
:1020A0001A467B681344B3F5F47F01D901236EE02F
:1020B0003B4B1A68394B1B889BB29B0013447B62D5
:1020C00000233B620CE03A683B6A13441B781A46D3
:1020D0007B6A1A607B6A04337B623B6A01333B6232
:1020E0003A6A7B689A42EED3EFF310837B617B6997
:1020F000FB610123BB61BB6983F3108800BF274BE1
:102100001B889AB27B689BB2244913449BB20B8014
:10211000214B1B68012B07D1FB693B613B6983F3B2
:10212000108800BF002332E0FB69FB60FB6883F38B
:10213000108800BF7B68B3F5F47F01D9012326E046
:10214000174B1B687B6200233B620CE03A683B6ADA
:1021500013441B781A467B6A1A607B6A04337B62DD
:102160003B6A01333B623A6A7B689A42EED30C4B7E
:102170001B681A460B4B0193009200237A680A49A8
:10218000002000F067FF0020FFF730FE0023184614
:102190002837BD4680BD00BF00C000426006004039
:1021A00098050020040C004017400A0080B584B058
:1021B00000AF03463960FB71FB790533184620F008
:1021C0004BFF0346FB60FB68002B01D100230DE0B1
:1021D000FB680533FA793968184620F05DFFFB6823
:1021E000FA791A71FB6800221A60FB6818461037EA
:1021F000BD4680BD80B584B000AF78607B68FB6071
:102200007B681B687B60F86820F02EFF7B681846AF
:102210001037BD4680BD000080B584B000AFB96006
:1022200011461A460346FB810B46BB811346FB80D1
:102230000222042100201FF00FFE044B01221A701D
:10224000002318461037BD4680BD00BFA005002002
:1022500080B582B000AF254B3B60A82200213868D2
:1022600020F028FF3B6803221A613B6803225A6171
:102270003B681F4A9A613B681E4ADA613B684FF42B
:1022800080621A623B6800229A623B6800225A62AE
:102290003B680022DA623B68154A1A663B68164AB8
:1022A0005A663B6810229A663B6800221A673B68B0
:1022B0000022DA663B6800225A6700237B600CE04C
:1022C0007B68C3F10F030D4AD1563A687B6813440B
:1022D0000A461A707B6801337B607B680F2BEFD94D
:1022E00000BF00BF0837BD4680BD00BF841C002072
:1022F000E04312002C1D00202C210020EC43120092
:1023000080B58AB000AFF860B9607A6000233B62A4
:10231000FB68DB68FB61FB681B69BB61BA69FB6931
:102320009A4205D9BA69FB69D31A013B7B6207E07F
:10233000FB689A68B969FB69CB1A1344013B7B625D
:10234000FB689A68FB69D31A7A6A934228BF1346DE
:102350007B627A6A7B68934228BF13467B62FB6884
:102360005A68FB6913447B617A6AB968786920F01E
:1023700093FE3A6A7B6A13443B62BA687B6A1344F1
:10238000BB607A687B6AD31A7B60FA697B6A134404
:10239000FB61FB689B68FA699A4201D10023FB61EB
:1023A000FB68FA69DA607B68002BB4D13B6A184697
:1023B0002837BD4680BD80B588B000AFF860B960F1
:1023C0007A60FB68DB68FB61FB689A68FB69D31A7B
:1023D000BB61BA697B689A420FD9FB685A68FB698E
:1023E00013443B617A68B968386920F055FEFA6990
:1023F0007B681A44FB68DA601DE0BB697B61FB689F
:102400005A68FB6913443B617A69B968386920F0FE
:1024100043FE7A68BB69D31A7B61FB685B683B61EA
:10242000BA68BB6913447A691946386920F034FEEA
:10243000FB687A69DA6000BF2037BD4680BD80B492
:1024400087B000AF78607B681B693B617B68DB68A5
:10245000FB603A69FB689A4208D87B689A68FB6817
:10246000D21A3B691344013B7B6104E03A69FB6883
:10247000D31A013B7B617B6918461C37BD4680BC83
:102480007047000080B588B000AFF860B9607A602E
:10249000BB68BB61FB685A1C13465B001344DB003E
:1024A0001F4A13447B617B695B69022B29D0022B95
:1024B0002ED8002B02D0012B13D029E07869FFF72A
:1024C000BEFF38613A697B689A4202D20023FB6101
:1024D00021E07B68FB617A68B9697869FFF76BFF77
:1024E00019E07869FFF7ABFF38617A683B6993427E
:1024F00028BF1346FB61FA69B9697869FFF75BFF8A
:1025000009E07A68B9697869FFF7FAFEF86102E0D4
:102510000023FB6100BFFB6918462037BD4680BD24
:10252000841C002080B588B000AFF860B9607A6084
:102530000E4BFB61FB691B785BB2002B01D1FFF7EF
:1025400087FEEFF311834FF0200181F31188BB6107
:102550007A68B968F868FFF795FF7861BB6983F31B
:1025600011887B6918462037BD4680BD841C002039
:1025700080B500AFFFF76CFE00BF80BD80B584B0B2
:1025800000AF78600B46FB707B689B68FB60FB6864
:102590005A1C7B685B689A420ED87B681A68FB6895
:1025A0001344FA781A70FB685A1C7B689A607B683F
:1025B000DB685A1C7B68DA607B689A687B685B68BA
:1025C0009A4215D17B6818697B6819687B689B689B
:1025D0001A46FFF7A7FF02467B689B689A4204D021
:1025E0007B684FF0FF32DA6002E07B6800229A607D
:1025F00000BF1037BD4680BD80B58AB000AFF8601F
:10260000B9607A603B60BB683B6201237B62012357
:10261000FB6107E03A6A7B68B2FBF3F33B62FB695C
:102620000133FB613A6A7B689A42F3D23A68FB69EC
:102630009A4201D93B68FB617B6B03F00103002BDD
:1026400026D13B6B002B23D07B6B03F00203002BC6
:1026500005D03B68002B02D13023FB7601E020231C
:10266000FB760CE03B6B013B3B6397F91B30194653
:10267000F868FFF783FFFB68DB68002B07DB3B6B29
:10268000002B05D0FA693B6B9A42EBD300E000BF08
:10269000FB68DB68002B56DB3B68012B03D93B68EA
:1026A000013B3B6009E0BA687B6AB2FBF3F37B61F4
:1026B0007A697B689A4200D205E07B6A7A6802FBFD
:1026C00003F37B62E8E7BA687B6AB2FBF3F37B61F2
:1026D0007B697A6A02FB03F3BA68D31ABB601C4AAF
:1026E0007B69134493F900301946F868FFF746FFF9
:1026F000FB68DB68002B08DB7A6A7B68B2FBF3F3CC
:102700007B627B6A002BDED100E000BF7B6B03F0B5
:102710000103002B17D03B6B002B14D00AE03B6B5E
:10272000013B3B632021F868FFF728FFFB68DB686B
:10273000002B07DB3B6B002B05D0FA693B6B9A4201
:10274000EDD300E000BF00BF2837BD4680BD00BF0D
:102750000044120080B588B002AFF860B9607A60BA
:102760003B60BB68002BB8BF5B423B6101237B61D0
:1027700007E07B683A6992FBF3F33B617B690133C5
:102780007B617B683A699A42F3DA3A687B699A42DC
:1027900001D93B687B613B6A002B0AD0BB68002BE8
:1027A00004DB7B6A03F00403002B02D03B6A013B8D
:1027B0003B627B6A03F00203002B02D03B68002BD4
:1027C0001CD07B6A03F00103002B17D13B6A002B5E
:1027D00014D00AE03B6A013B3B622021F868FFF716
:1027E000CDFEFB68DB68002B07DB3B6A002B05D0C6
:1027F0007A693B6A9A42EDD300E000BFFB68DB6870
:10280000002B4ADBBB68002B07DABB685B42BB606E
:102810002D21F868FFF7B2FE08E07B6A03F004039D
:10282000002B03D02B21F868FFF7A8FEFB68DB68BC
:10283000002B32DB7B6A03F00203002B1FD07B6A84
:1028400003F00103002B1AD13B68002B17D13B6A20
:10285000002B14D00AE03B6A013B3B623021F86850
:10286000FFF78CFEFB68DB68002B07DB3B6A002B65
:1028700005D07A693B6A9A42EDD300E000BFFB685D
:10288000DB68002B09DBB9687B6A01933B6A009324
:102890003B687A68F868FFF7AFFE00BF1837BD469F
:1028A00080BD000080B5A2B002AFF860B9607A6068
:1028B00007F110033B6540237B650023BB65FB6884
:1028C0003B660023FB65BB681B7887F87F30BB68DD
:1028D0000133BB6097F97F30002B00F09F8197F99F
:1028E0007F30252B40F08D8100233B670123BB67A0
:1028F000BB681B7887F87F3097F97F30233B0D2B1F
:102900003ED801A252F823F071291000812910004D
:1029100081291000812910008129100081291000CF
:1029200081291000812910006129100081291000DF
:10293000412910008129100081291000512910001F
:102940003B6F43F001033B67BB680133BB601AE098
:102950003B6F43F002033B67BB680133BB6012E08F
:102960003B6F43F004033B67BB680133BB600AE085
:102970003B6F43F008033B67BB680133BB6002E079
:102980000023BB6700BFBB6F002BB1D10023FB66E8
:10299000BB681B7887F87F3097F97F302F2B12DDCB
:1029A00097F97F30392B0EDCBB680133BB60FA6EC0
:1029B00013469B0013445B001A4697F97F3013447B
:1029C000303BFB66E4E700237B67BB681B7887F836
:1029D0007F3097F97F302E2B1DD1BB680133BB6050
:1029E000BB681B7887F87F3097F97F302F2B12DD7B
:1029F00097F97F30392B0EDCBB680133BB607A6FEF
:102A000013469B0013445B001A4697F97F3013442A
:102A1000303B7B67E4E7BB681B7887F87F3097F92A
:102A20007F306C2B03D097F97F30682B07D1BB68C0
:102A30000133BB60BB681B7887F87F30EFE797F9FD
:102A40007F30252B00F0D180252BC0F2D580782B4C
:102A500000F3D280582BC0F2CF80583B202B00F2DD
:102A6000CB8001A252F823F05F2B1000F92B10004D
:102A7000F92B1000F92B1000F92B1000F92B100086
:102A8000F92B1000F92B1000F92B1000F92B100076
:102A9000F92B1000ED2A1000132B1000F92B100059
:102AA000F92B1000F92B1000F92B1000F92B100056
:102AB000F92B1000F92B1000F92B1000F92B100046
:102AC000F92B1000F92B1000C52B1000F92B10006A
:102AD000F92B1000852B1000F92B1000392B10005A
:102AE000F92B1000F92B10005F2B10007B681B687E
:102AF000191D7A6811601B68BB67BB6F87F8673068
:102B000097F9672007F1500311461846FFF736FD85
:102B100073E07B681B68191D7A6811601B68BB67CE
:102B200007F150003B6F0193FB6E00937B6F0A220D
:102B3000B96FFFF70FFE60E07B681B68191D7A68AC
:102B400011601B68BB67B96F07F150003B6F0193C1
:102B5000FB6E00937B6F0A22FFF74EFD4DE07B6812
:102B60001B68191D7A6811601B68BB67B96F07F194
:102B700050003B6F0193FB6E00937B6F1022FFF7B9
:102B80003BFD3AE07B681B68191D7A6811601B6881
:102B9000BB66BB6E1B7887F87F30BB6E0133BB66AC
:102BA00097F97F30002B0BD097F97F2007F1500366
:102BB00011461846FFF7E2FCFB6D002BE9DA1CE03A
:102BC00000BF1AE07B681B68191D7A6811601B68DA
:102BD000BB67B96F07F150000023019308230093EE
:102BE00008231022FFF708FD07E007F15003252115
:102BF0001846FFF7C3FC00E000BFBB680133BB60B1
:102C000007E097F97F2007F1500311461846FFF7B8
:102C1000B5FCFB6D002BBFF656AE00E000BFFB6DB0
:102C2000002B0DDDBB6D002B06D0BA6D07F1100334
:102C30001946F868FFF776FCFB6DBA6D1344FB6527
:102C4000FB6D18468037BD4680BD00BF0EB480B511
:102C500085B000AF786007F12003BB6007F108037F
:102C60001A46F9697868FFF71DFEF860FB68184698
:102C70001437BD46BDE8804003B0704780B500AF53
:102C8000FFF776FC00BF80BDB0B5AAB000AF034629
:102C90003960FB71012387F8A73000233B730023C1
:102CA00087F8933007F10C031846FEF7E9FBFB7930
:102CB000092B00F25D8101A252F823F0E52C1000EF
:102CC0003F2D10008D2D1000DB2D1000392E10002F
:102CD000E92E1000032F10001D2F1000392F1000B7
:102CE000552F10003B7B012B08D13B681A4607F19A
:102CF0000D03196811609B88938040E14FF4012314
:102D0000C7F8A0300622D7F8A010A04820F0B4F9E8
:102D10000346002B08D00622D7F8A0109C4820F0CC
:102D2000ABF90346002B03D1002387F8A73026E137
:102D30000622D7F8A010386820F0AEF91FE13B7BDF
:102D4000012B0CD13B681A4607F113031C68586825
:102D50009968DB68146050609160D3600CE18D4B22
:102D6000C7F8A0301022D7F8A010386820F094F9E6
:102D70001022D7F8A010854820F07EF90346002BDA
:102D800040F0FA80002387F8A730F5E03B7B012B69
:102D90000CD13B681A4607F123031C6858689968F0
:102DA000DB68146050609160D360E7E07A4BC7F84D
:102DB000A0301022D7F8A010386820F06DF910224A
:102DC000D7F8A010714820F057F90346002B40F0C7
:102DD000D580002387F8A730D0E03B7B012B14D1AE
:102DE0003B681A4607F133031D685C689868D96828
:102DF000156054609060D1601D695C699869D969FB
:102E0000156154619061D161B9E0644BC7F8A0309D
:102E10002022D7F8A0105D4820F02EF90346002BA1
:102E200006D02022D7F8A010386820F035F9A6E0A7
:102E3000002387F8A730A2E03B7B012B29D13B6818
:102E40001A4607F153031D685C689868D9681560D5
:102E500054609060D1601D695C699869D969156199
:102E600054619061D1613B6820331A4607F17303C6
:102E70001D685C689868D968156054609060D1607E
:102E80001D695C699869D969156154619061D16166
:102E900075E0434BC7F8A030424BC7F89C30202266
:102EA000D7F8A010394820F0E7F80346002B17D0D8
:102EB0002022D7F89C10354820F0DEF80346002B7E
:102EC0000ED02022D7F8A010386820F0E5F83B6833
:102ED00020332022D7F89C10184620F0DDF84EE071
:102EE000002387F8A7304AE097F89330012B04D1EC
:102EF000B7F894203B681A8041E0002387F8A73098
:102F00003DE097F89330012B04D197F896203B6869
:102F10001A7034E0002387F8A73030E097F8933038
:102F2000012B05D197F99730DAB23B681A7026E089
:102F3000002387F8A73022E097F89330012B05D1C2
:102F400097F99830DAB23B681A7018E0002387F8D6
:102F5000A73014E097F89330012B05D197F99930F9
:102F6000DAB23B681A700AE0002387F8A73006E05F
:102F7000002387F8A73002E000BF00E000BF97F809
:102F8000A7301846A837BD46B0BD00BF28000020B6
:102F90003C2100201010080020100800A017080095
:102FA000C0170800E017080080B485B000AF0346E2
:102FB0000A46FB711346BB800023FB73FB791A2B77
:102FC0000BD9FB79FB2B08D8BB88B3F5A47F04D3BE
:102FD000BB8840F64802934208D90A4B0022DA72B5
:102FE000084B00229A81FF23FB7305E0054AFB7919
:102FF000D372044ABB889381FB7B18461437BD46C5
:1030000080BC70474800002080B483B000AF034606
:10301000FB71FB79002B03D0054B01229A7302E070
:10302000034B00229A7300BF0C37BD4680BC70472B
:103030004800002080B483B000AF0346FB71044A0F
:10304000FB79D37300BF0C37BD4680BC704700BF0F
:103050004800002080B485B000AFF860B9607A60A5
:103060003B60134AFB68002142F823101049FB68BB
:103070000833BA6941F823200D49FB681033FA6917
:1030800041F823207B689AB23B681B0408491A4325
:10309000FB68183341F823200549BB6823F401423B
:1030A000FB6841F8232000BF1437BD4680BC704741
:1030B0000006004080B584B000AFF8600B467A602F
:1030C0007B8154231B6879897A68F868984703469E
:1030D00018461037BD4680BD80B584B000AF0346AA
:1030E000FB710023FB60FB79FB72FB7A692B01D13A
:1030F0006B23FB71FB799BB207F1080219460C4860
:10310000FFF7D8FFF860FB7A692B03D13B89023BBC
:103110009BB23B81FB68012B05D03A89054BD2B2AB
:103120001A70002300E0122318461037BD4680BDF8
:10313000101808001413004080B582B000AF78600A
:103140007B68112B05D92C231B687A68113A10462D
:10315000984700BF0837BD4680BD80B584B000AF3A
:10316000F860B9607A6058231B687A68B968F868B3
:103170009847034618461037BD4680BD80B483B0DB
:1031800000AF7860044A7B6803F03F03136600BF1A
:103190000C37BD4680BC70470012004080B483B03D
:1031A00000AF7860396005497B6810333A6841F8B0
:1031B000232000BF0C37BD4680BC70470012004082
:1031C00080B584B000AFF8600B467A607B815423F1
:1031D0001B6879897A68F86898470346184610375B
:1031E000BD4680BD80B58AB000AF78600C237B629D
:1031F0000023FB810023BB830023BB6100233B62D0
:103200000023FB7700237B610023BB60A04B03F10D
:10321000007303F51033D3F89C3D002B14BF01233A
:103220000023FB7407F108031A4601219948FFF7B0
:1032300094FF994B9B78BB74954B1B78DBB2BB8397
:10324000954B00229A70954B7A6AD2B25A70924B83
:1032500001229A70914B7A6AD2B25A708E4ABB7C24
:1032600093707B68062B03DC7B6813F1110F03DA84
:103270004FF444733B6291E17B68002B6DDA6E2062
:10328000FFF72AFFB861BB69002B05D04FF44873E4
:103290003B62834B23221A707A6813465B00134407
:1032A0005B0013F16E0F24DA7A6813465B00134457
:1032B0005B006E337B4A82FB03129210DB17D31A3A
:1032C0007B627B6A13F1030F03DA6FF002037B6208
:1032D0002EE07B6AB3F1FF3F03D16FF001037B6205
:1032E00026E07B6A13F1020F22D14FF0FF337B629D
:1032F0001EE07A6813465B0013445B006E33184689
:103300001FF06AFB4FF00002674B1FF019FA0246EC
:103310000B46104619464FF00002644B1FF0F0FCBC
:1033200002460B46104619461FF0D2FD03467B624B
:10333000594B9B78BB74584B00229A70574B7A6A52
:10334000D2B25A70544B01229A70544B7A6AD2B25C
:103350005A70514ABB7C937020E17B68002BC0F20D
:103360001B817B68022B00F317810120FFF706FF0A
:1033700047210020FFF712FF4D4B9B6D7B744C4B98
:1033800001229A657B68022B02D07B68002B6CD1EE
:103390007B68002B20D107F10E031A4670214548A7
:1033A000FFF70EFFB861BB69002B05D04FF44873DF
:1033B0003B620C23FB812FE0BB68152B2CD9FB7CD7
:1033C000002B03D0FB891B0A9BB2FB81FB8903F016
:1033D0001F039BB2FB811FE007F10E031A467D21FC
:1033E0003448FFF7EDFEB861BB69002B05D04FF400
:1033F00048733B621923FB810EE0BB68152B0BD988
:10340000FB7C002B03D0FB891B0A9BB2FB81FB8951
:1034100003F01F039BB2FB81FB89BA8B9A4215D341
:10342000254A7B6813441B781846FFF755FEB861A0
:10343000BB69002B73D03B6A43F448733B62184A64
:103440001E497B680B441B78137068E03B6A43F4A9
:103450004C733B626920FFF73FFEB861BB69002BEC
:103460005DD00F4B1E221A7059E007F10E031A4669
:1034700078211048FFF7A4FEB861BB69002B1FD06C
:103480003B6A43F448733B621423FB8127E000BF8F
:1034900004130040F81808001400014064000140C3
:1034A0001413004067666666000014400000244064
:1034B0000013004070180800104412001844120055
:1034C000BB68152B0BD9FB7C002B03D0FB891B0A97
:1034D0009BB2FB81FB8903F01F039BB2FB81FB893D
:1034E000BA8B9A420CD3544A7B6813441B78002150
:1034F000184600F0AFF802463B6A13433B620FE008
:103500003B6A43F44C733B626920FFF7E5FDB86109
:10351000BB69002B04D0494B1E221A7000E000BF8B
:1035200042F21070FFF708FE454B1B687B617B6918
:103530004FF47A7202FB03F35B0B7B61FB89BA8B5E
:103540009A4218D33C4A7B6813441B781A461346A8
:103550009B0013445B0019331A467B69934214D2D3
:103560007B68002B04D13B6A43F44C733B620CE054
:103570000123FB7709E07B68002B04D13B6A43F40D
:103580004C733B6201E00123FB770020FFF7F6FD5F
:103590002C4A7B7C936501E00123FB77FB7F012BA9
:1035A0002FD16E20FFF798FDB861274BF0229A705B
:1035B000BB69002B05D04FF448733B621F4B23229D
:1035C0001A701D4A7B6813441B780121184600F0CD
:1035D00041F802463B6A13433B621C4B03221A70BC
:1035E0001B4B03F1007303F514331A460123936058
:1035F000174B03F1007303F514331A46002393614C
:1036000015E0114B73229A70104B00221A70104B68
:1036100003F1007303F514331A46002393600C4B37
:1036200003F1007303F514331A46012393613B6AD7
:1036300018462837BD4680BD1044120014130040C0
:1036400000120040001300408C00014008130040AD
:103650001813004080B588B000AF03460A46FB71DE
:103660001346BB7100237B6100233B610023BB61D8
:10367000BB7983F00103DBB2002B27D06B23FB83E4
:103680007823BB83FB8BDBB29BB207F10A0219469E
:103690004648FFF795FD7861BB8BDBB29BB207F123
:1036A000080219464148FFF78BFD38617B69012B01
:1036B00002D03B69012B30D120239BB27B812D238B
:1036C0009BB23B814FF44873BB6126E07E23FB83B2
:1036D000A023BB83FB8BDBB29BB207F10A02194626
:1036E0003348FFF76DFD7861BB8BDBB29BB207F10E
:1036F000080219462E48FFF763FD38617B69012BEC
:1037000002D03B69012B08D115239BB27B81372363
:103710009BB23B814FF44873BB61FB79FB73FA7B2F
:10372000FB8BD31A3A8911467A898A1A03FB02F273
:1037300013469B0013445B001946BA8BFB8BD31ACC
:1037400091FBF3F27B8919460B469B000B445B000F
:10375000134418461FF040F94FF00002154B1EF0BD
:10376000EFFF02460B46104619464FF00002124B7F
:103770001FF0C6FA02460B46104619461FF0D0FB52
:103780000346BB81BB7983F00103DBB2002B04D07D
:103790000A4BBA89D2B21A7003E0094BBA89D2B285
:1037A0001A70BB6918462037BD4680BD1018080046
:1037B00020180800000014400000244014130040AA
:1037C0001813004080B487B000AFF860B9607A6029
:1037D000FA68BB68B2FBF3F3B3F5806F02D901233B
:1037E0003B6101E000233B61BB68B3F5804F10D221
:1037F000BB6899033A6913469B0013445B0013446A
:10380000013303FB01F2FB681B09B2FBF3F37B619D
:103810000FE0BB6819023A6913469B0013445B0032
:103820001344013303FB01F2FB689B0AB2FBF3F381
:103830007B617B691B0223F07F4323F0FF033A691E
:1038400012011A437B6803F002031343044A43F056
:103850000103136000BF1C37BD4680BC704700BF2A
:10386000000C004080B584B000AF7860214B1B682D
:10387000002B02D11F4B204A1A607B68002B13DDFE
:103880007B68033323F003037B601A4B1A687B6861
:1038900013441A4A93421ED91FF0D8FB03460C2248
:1038A0001A604FF0FF3320E07B68002B13DA7B684F
:1038B000033B23F003037B600E4B1A687B681344C1
:1038C0000D4A934207D21FF0C1FB03460C221A6037
:1038D0004FF0FF3309E0074B1B68FB60054B1A688C
:1038E0007B681344034A1360FB6818461037BD46D3
:1038F00080BD00BF442100204C560020007C0020E9
:1039000080B483B000AF0346FB7197F90730002BFA
:103910000BDBFB7903F01F02064997F907305B09BF
:10392000012000FA02F241F8232000BF0C37BD4607
:1039300080BC704700E100E080B483B000AF034674
:10394000FB7197F90730002B12DBFB7903F01F02A4
:103950000A4997F907305B09012000FA02F2203387
:1039600041F82320BFF34F8F00BFBFF36F8F00BF1D
:1039700000BF0C37BD4680BC704700BF00E100E0CF
:1039800080B483B000AF0346FB7197F90730002B7A
:103990000CDBFB7903F01F02074997F907305B093D
:1039A000012000FA02F2603341F8232000BF0C37F7
:1039B000BD4680BC704700BF00E100E080B400AFAE
:1039C000094B4FF0FF32C3F88020074B4FF0FF3216
:1039D000C3F88420044B4FF0FF32C3F8882000BFA7
:1039E000BD4680BC704700BF00E100E080B400AF7E
:1039F000094B4FF0FF32C3F88021074B4FF0FF32E5
:103A0000C3F88421044B4FF0FF32C3F8882100BF74
:103A1000BD4680BC704700BF00E100E080B483B0C9
:103A200000AF7860054A7B6838334FF4F85142F8AC
:103A3000231000BF0C37BD4680BC70470006004015
:103A400080B58AB002AF0023FB74704A704BD31A62
:103A50009B08FB60FFF7B2FFFFF7C8FF01237B6005
:103A60007B6883F3108800BF0023BB60BB6883F3CF
:103A7000138800BF674A684B9A4232D8674B0122CD
:103A80009A604320FFF77CFF654B03F1007303F559
:103A900020431A460023C2F8A43A614B03F1007395
:103AA00003F520431A460023C2F8A03A5C4B03F109
:103AB000007303F520431A460023C2F8803A594B9D
:103AC000544AC3F8D020574B574AC3F8D420574A1A
:103AD000554BD31A534A9B08C2F8D8304F4B01229A
:103AE0005A60FB68002B0FD00820FFF749FF002029
:103AF000FFF794FF464B01934D4B00930023FA6868
:103B00004C490020FFF7A6FA424A434B9A4215D887
:103B100003E04320FFF7F4FE30BF404B1B68002B4F
:103B2000F7D14320FFF72CFF4320FFF705FF3B4B66
:103B3000DB68012B04D10123FB7401E00123FB743A
:103B4000FB7C012B10D1384BFB61324BBB6107E092
:103B5000BA69131DBB61FB69191DF96112681A600E
:103B6000FB69324A9342F3D3FB68002B21D003E078
:103B70000820FFF7C5FE30BF2F4BD3F8E03003F02D
:103B8000E003002BF4D10820FFF7FAFE0820FFF72E
:103B9000D3FE2A4B1B69012B0BD11D4BFB6104E0AB
:103BA000FB691A1DFA6100221A60FB69174A9342E9
:103BB000F6D30020FFF756FE00237B6107E0204A82
:103BC0007B6952F8233098477B6901337B611D4A3A
:103BD0001B4BD31A9B101A467B699342EFD30023E9
:103BE0007B6107E0184A7B6952F8233098477B696C
:103BF00001337B61154A144BD31A9B101A467B691B
:103C00009342EFD300F0F0FAFEE700BF4C560020DD
:103C1000CC0000208C641200FEFF150000B90042A9
:103C2000800500400005004004000020CC0000207A
:103C3000040000402B0CCA000006004000DC0042DB
:103C40007001100070011000700110007001100070
:103C5000FEE7FEE7FEE7FEE7FEE7FEE7FEE7FEE73C
:103C6000FEE7FEE780B584B000AFF860B9607A6027
:103C700058231B687A68B968F8689847034618465D
:103C80001037BD4680BD80B58AB000AFF8600B46E6
:103C90007A60FB72FB6807F1100204211846FFF7F7
:103CA000E1FF38623B6A002B01D03B6A27E000232A
:103CB00087F827301EE097F827309B0007F128028D
:103CC000134453F8183CDBB2FA7A9A420DD197F8B4
:103CD00027309B0007F12802134453F8183C1B0CB3
:103CE0009AB27B681A80002309E097F827300133E5
:103CF00087F8273097F82730032BDCD901231846A3
:103D00002837BD4680BD000080B400AF084B1B685B
:103D100046F2A712934204D9054B1B68054A934209
:103D200002D9034B044A1A6000BFBD4680BC7047ED
:103D300000000020006CDC02404B4C0080B586B0D7
:103D400000AF804B1B683B613B6903F00703013BFD
:103D5000032B31D801A252F823F000BF6D3D1000B3
:103D6000773D10008D3D1000A33D1000764B4FF4C1
:103D700000421A605FE0754BDB78DBB21A46744B89
:103D800093FBF2F31A46704B1A6054E06D4B5B786C
:103D9000DBB201336E4A92FBF3F31A466A4B1A60A8
:103DA00049E0684B9B78DBB20133694A92FBF3F33D
:103DB0001A46654B1A603EE0664B1B6A1B0ADBB273
:103DC00003F03F03FB73644B03F1007303F51433FB
:103DD000D3F82831012B17D1BA1DFB7B19465F4858
:103DE000FFF751FFB860BB68002B09D1FB881A466A
:103DF0004FF47A7302FB03F31A46534B1A601AE02E
:103E0000514B574A1A6016E0BA1DFB7B19465548BC
:103E1000FFF739FFB860BB68002B09D1FB881A4651
:103E20004FF47A7302FB03F31A46474B1A6002E021
:103E3000454B4D4A1A60444B1B684C4A934205D887
:103E40004B4B00221A7000237B616FE03E4B1B68D6
:103E5000484A934205D8464B01221A7000237B61E1
:103E600064E0394B1B68444A934205D8404B022218
:103E70001A7000237B6159E0334B1B683A4A934226
:103E800005D83B4B04221A7002237B614EE02E4B77
:103E90001B683A4A934205D8354B07221A70032310
:103EA0007B6143E0284B1B68354A934205D8304B71
:103EB00009221A7005237B6138E0234B1B68314AC5
:103EC000934205D82A4B0B221A7005237B612DE003
:103ED0001D4B1B68224A93420DD8254B0F221A70A6
:103EE0003B6903F00703002B02D107237B611DE030
:103EF00006237B611AE0144B1B68234A934205D8C2
:103F00001B4B13221A7007237B610FE00E4B1B68BB
:103F10001E4A934205D8164B17221A7008237B615C
:103F200004E0134B2F221A7009237B61184B1B6985
:103F300023F00F0216497B6913430B6100BF18374A
:103F4000BD4680BD0001004000000020BC000140D3
:103F5000006CDC020013004020130040B018080081
:103F60000024F40090180800404B4C0040420F0021
:103F70000401004080841E00C0C62D0000127A009B
:103F800080969800001BB700002D310100366E01AD
:103F90000005004080B400AF00231846BD4680BC39
:103FA000704780B400AF00231846BD4680BC704700
:103FB00080B400AF00231846BD4680BC704780B473
:103FC00000AF00231846BD4680BC704780B400AFE8
:103FD00000231846BD4680BC704780B400AF002364
:103FE0001846BD4680BC704780B400AF0023184619
:103FF000BD4680BC704780B400AF00231846BD4664
:1040000080BC704780B400AF00231846BD4680BC1A
:10401000704780B400AF00231846BD4680BC70478F
:1040200080B400AF00231846BD4680BC704780B402
:1040300000AF00231846BD4680BC704780B400AF77
:1040400000231846BD4680BC704780B400AF0023F3
:104050001846BD4680BC704780B400AF00231846A8
:10406000BD4680BC704780B400AF00231846BD46F3
:1040700080BC704780B400AF00231846BD4680BCAA
:10408000704780B400AF00231846BD4680BC70471F
:1040900080B400AF00231846BD4680BC704780B492
:1040A00000AF00231846BD4680BC704780B400AF07
:1040B00000231846BD4680BC704780B400AF002383
:1040C0001846BD4680BC704780B400AF0023184638
:1040D000BD4680BC704780B400AF00231846BD4683
:1040E00080BC704780B400AF00231846BD4680BC3A
:1040F000704780B400AF00231846BD4680BC7047AF
:1041000080B400AF00231846BD4680BC704780B421
:1041100000AF00231846BD4680BC704780B400AF96
:1041200000231846BD4680BC704780B400AF002312
:104130001846BD4680BC704780B400AF00231846C7
:10414000BD4680BC704780B400AF00231846BD4612
:1041500080BC704780B400AF00231846BD4680BCC9
:10416000704780B400AF00231846BD4680BC70473E
:1041700080B400AF00231846BD4680BC704780B4B1
:1041800000AF00231846BD4680BC704780B400AF26
:1041900000231846BD4680BC704780B400AF0023A2
:1041A0001846BD4680BC704780B582B000AF7860CD
:1041B0007B68112B05D92C231B687A68113A1046AD
:1041C000984700BF0837BD4680BD000080B400AFEF
:1041D000034B044A5A6000BFBD4680BC704700BF15
:1041E0000003004011E2B10290B5FFB002AFFCF74E
:1041F000E3F8FEF743FD58490020FEF727FD0020B5
:10420000FCF73EF807F5F873A3F5F873AA221A60D5
:104210001DF0A0FA514B1B68002B15D04F4B1B68AB
:104220001B791A464D4B1B68053319461046FDF79E
:104230002BFF0346012B07D0484B1B681846FDF7A0
:10424000D9FF0346454A1360454B5B79042B7FD168
:1042500001210020FCF7EAFFFFF7B8FF414B1A6885
:1042600013469B0013441846FFF79EFF3E4B93F8FE
:10427000F431002B6CD007F5F873A3F5F873DB78F5
:104280000133DAB207F5F873A3F5F873DA7007F5BE
:10429000F873A3F5F873DB78032B05D907F5F873EA
:1042A000A3F5F8730022DA703A46042301210020B6
:1042B000FDF73EF8FFF78AFF2A4B1A6813469B006A
:1042C00013441846FFF770FF3B1D1846FDF716FE16
:1042D000C7F8EC01D7F8EC31002B39D0224B93F81A
:1042E000F931022B34D1D7F8EC31F42B21D91C4B06
:1042F00098781D4BB3F81422391D0D230193F42334
:1043000000930023FCF7FAFE154B9878164BB3F890
:104310001442D7F8EC319BB2F43B9BB23A1D02F148
:10432000F4010D220192009300232246FCF7E6FEE1
:104330000EE00B4B98780C4BB3F81422D7F8EC3105
:104340009BB2391D0D24019400930023FCF7D6FE87
:10435000FFF73CFF20BF5BE720441200640500200C
:10436000680500200000002014010020C0B21438AD
:10437000322869D8DFE800F01E2032342E301C1AB3
:1043800022242A2C262836383A3C3E404246444ACB
:10439000484E4C5A585E5C5250565468686868687B
:1043A000686868686860626868646600FFF7F2BD04
:1043B000FFF7F7BDFFF7FCBDFFF701BEFFF706BE35
:1043C000FFF70BBEFFF710BEFFF715BEFFF71ABED3
:1043D000FFF71FBEFFF724BEFFF729BEFFF72EBE73
:1043E000FFF733BEFFF73FBEFFF736BEFFF742BE13
:1043F0001DF004BFFFF745BEFFF74ABEFFF74FBEF3
:10440000FFF754BEFFF759BEFFF75EBEFFF763BE6E
:10441000FFF768BEFFF76DBEFFF78EBEFFF793BED6
:10442000FFF798BEFFF79DBEFFF76ABEFFF76FBEAE
:10443000FFF774BEFFF779BEFFF79ABEFFF79FBE86
:10444000FFF7A4BEFFF7A9BE00207047F8B50546E8
:10445000164CA0B90A26FF27A682F0B201362146E3
:10446000B6B2C4E901552561E782E581A5812560E1
:104470001DF0FEFB322E04F11804EDD1F8BD00252D
:10448000FF272E46E08AFFF771FF10B143682046F0
:104490009847207D0635C4E90166E782E6811DF074
:1044A0004DFCF02D04F11804ECD1E7E74821002081
:1044B000F7B5044640880E46FFF758FF50B3002377
:1044C0006288164D05EB4301C98A914224D00C3312
:1044D000B3F5F07FF6D10023104AD18AFF2912D11B
:1044E000182202FB035504F1080300930768637860
:1044F0002846A288A11DB84718B96388EB82AB8A09
:10450000338003B0F0BD0133282B02F11802E4D14F
:104510004B20F6E74020F4E74220F2E74821002054
:1045200070B506460025084CE08AFFF71FFF18B15A
:1045300083683146204698470C35B5F5F07F04F185
:104540001804F1D170BD00BF48210020F8B506461F
:104550000F460025084CE08AFFF708FF20B1C3682A
:104560003A463146204698470C35B5F5F07F04F1C0
:104570001804F0D1F8BD00BF48210020094A0023EB
:10458000114610B5D48A844204D1182202FB0313C9
:10459000186910BD0133282B02F11802F2D1002056
:1045A000F7E700BF482100204388C3F30E001B0437
:1045B00048BF40EA012070470388C3F30E001B0484
:1045C00048BF40EA0120704703780B7143784B7174
:1045D00043880B8003798B71B0F805304B807047AE
:1045E00038B5FFF7E1FF090202460A2340F608400A
:1045F00041F00701BDF810501DF06EFA4FF48472BF
:10460000028000228580C2800281BDE838401DF012
:104610007DBA38B513881446A3B1FFF7C5FF090268
:104620000246082340F60F4041F007011DF054FAFE
:1046300010220270228882806288BDE83840C280E1
:104640001DF064BA38BD38B5FFF7AEFF0902144655
:104650001A23024641F0070140F619401DF03CFACA
:10466000012282804FF6FF72C28040F2152204724E
:10467000240A02804472BDE838401DF047BA2DE993
:10468000F0411E461546BDF818709DF81C8002B317
:10469000FFF78AFF07F10C03090202469BB241F0C3
:1046A000070140F60A401DF017FA0023C38043813A
:1046B0000123044680F80080858007813A46314610
:1046C00043700C301EF0E8FC2046BDE8F0411DF0C0
:1046D0001DBABDE8F0811FB58DF80C301B0A4FF0F4
:1046E0000C0C8DF80D300223CDE9003C03ABFFF735
:1046F000C6FF05B05DF804FB02EB8003002030B577
:104700009A4200D000B130BD0C8834B99478FF2CA7
:1047100008BF832006310432F2E7D4780D79AC4328
:1047200018BF8520F6E770B502EB8004062600204E
:104730000239A24200D000B170BD31F8025F45B924
:104740009578FF2D05D1D57875435D5B002D18BF99
:1047500083200432EDE72DE9F04F0546002489B0AF
:10476000CDE904120693139A9DF8483002EB8303B7
:104770000393AA8AB5F81280A2EB08039C4202DBDD
:1047800009B0BDE8F08F162303FB0453997D02297D
:104790006ED1B3F818A052456AD304EB08029245D3
:1047A00066DD6FEA080616224FF000095644F6B29D
:1047B0005643DB7D06F1180B069FAB442E445FFA8F
:1047C00089F20292049A4A4552D03A88002A55D179
:1047D0000193059B584633F82920F17D11F06DFEB9
:1047E000019B00284AD0264608F10108A044A7F8FA
:1047F0000080A7F802A03B711623B1460136F6B23D
:10480000734305EB030B9BF81620042A1FD1DDE947
:10481000138A1833EB180193039B434517D0534673
:104820001A880AF1020A32BB98F8032002998A42D8
:1048300021D1B8F800209BF817100198079311F0C8
:104840003CFE079BB8B16A8A013232441A806B8AF7
:10485000AA8A01333344934206DC162303FB065332
:104860009B7D013B012BC7D8A9EB04047C714C460E
:104870000134E4B27DE708F10408CDE709F101094C
:1048800006379CE738B5EFF31085012484F31088D0
:104890001CF086FF204601F099FE02F053F902F069
:1048A000EDFF054B20461C7302F08CFB034B1B688D
:1048B000984785F3108838BDD02C002010250020A3
:1048C000EFF31082012383F31088034B59890843C7
:1048D000588182F310887047D02C002008B5012041
:1048E000FFF7EEFFBDE8084009F02CBAEFF31081A6
:1048F000012383F31088044A538923EA000050817E
:1049000081F31088704700BFD02C002008B5074BFA
:104910005B89DB0709D509F051FA03201CF078FF09
:10492000BDE808400120FFF7E1BF08BDD02C002002
:10493000104B10B51B786BB10F4A10491468002258
:104940000B68E4FB0032580A40EAC250C0F3080387
:104950000B6010BD0A4A5368034403EB002303EBCA
:10496000C003C3F3080151601E22504300EB5320E3
:10497000EFE700BF0C25002008250020442500207B
:10498000D02C0020054B1B782BB1054B40021B6837
:10499000B0FBF3F07047034BC003F9E70C25002090
:1049A0000825002040420F0008B50246FFF7EAFF45
:1049B000054B18601046FFF7E5FF044B044A03EA75
:1049C0008023C2F83C3508BDD02C002000FCFF033A
:1049D0000010004038B5244D1022002128461EF05A
:1049E00069FB40F20113AB81C82300241F482B81CF
:1049F00000F098F8002001F0E9FD02F091F80DF0C8
:104A000013FD1B4B21461C701A4B20461C601A4B91
:104A10001C701A4B1C60FEF7C7FA2046FEF7F4FA2A
:104A20002046FEF707FB0123154A1370154A147040
:104A3000154A1460154A1460154A1460154A14602A
:104A4000154A1370154B1C7002F002FF204602F04D
:104A5000B9FA4BF68032124B2C731C60114B1C6060
:104A6000114B1A6038BD00BFD02C0020102500204B
:104A7000A52C00207C2600207826002080260020FF
:104A80003C2700202D270020FC2600207426002033
:104A900038270020BC260020C02600202C2700201C
:104AA00048250020442500204C250020054AD2F846
:104AB00070359B07FBD500F1804000F58030007811
:104AC000704700BF0010004000F1804000F58030CA
:104AD000017070477047704700207047034AD2F852
:104AE000303543F00703C2F83035704700100040FE
:104AF00008B51DF071FF08A3D3E900231DF0D6FF10
:104B00000022074B1DF01AFE1EF02AFA1EF078FA5A
:104B100040B208BDAFF300801F85EB51B81ED53FF2
:104B200000005B402DE9F843794B7A4903627A4BE8
:104B300043627A4B4361062380F82C30784B8362C2
:104B4000784B0360784B4360784BC361D1F8703584
:104B5000FF209BB243F08473C1F87035D1F87435EF
:104B600023F4F87343F03003C1F87435D1F8743589
:104B700043F48053C1F87435D1F8743543F40043DD
:104B8000C1F87435FFF792FFD1F87435A0F14004F5
:104B9000012C074623F00F0300F2D68043F00303F5
:104BA000C1F87435624B1B6803F47C73802B40F0B2
:104BB000AE81D1F8803523F47F0343F4E203C1F8DA
:104BC0008035D1F8803523F4F85343F47063C1F88D
:104BD0008035D1F8803523F0FF0343F02F03C1F86F
:104BE0008035D1F8903523F07F0343F00C03C1F8F2
:104BF0009035D1F8903523F4FE4343F44853C1F87F
:104C00009035D1F8903523F4F81343F40023C1F81C
:104C10009035D1F8903523F07F43C1F89035D1F825
:104C2000843523F47F0343F4E203C1F88435D1F8DB
:104C3000843523F4F85343F47063C1F88435D1F814
:104C4000843523F0FF0343F03103C1F88435D1F8F4
:104C5000943523F07F0343F00703C1F89435D1F86E
:104C6000943523F4FE4343F4D0534FF00008C1F8C9
:104C70009435D1F894352F4D23F4F81343F4802361
:104C8000C1F89435D1F894352B4E23F07F43C1F809
:104C9000943565223146284685F816801EF0FCF9C9
:104CA000D6F86630DFF89490C5F86630D6F86A30EA
:104CB00006F17001C9F80430B6F86E304E22A9F83A
:104CC00008301F481EF0E8F901231E4E65223146C8
:104CD000AB75284685F8BE801EF0DEF9D6F8663042
:104CE0004E22C5F86630D6F86A301548C9F8043047
:104CF000B6F86E3006F17001A9F808301EF0CCF954
:104D0000662385F8BE8085F8168085F8A7301DE0FB
:104D1000AD4A100000100040C94A1000D94A1000E6
:104D2000DD4A1000D54A1000D74A1000F14A1000A1
:104D30000014004000000140E04412006600014001
:104D400070000140A0451200C1F874350022A14B4B
:104D5000A149012C98BF51F8220002F1010298BF2D
:104D600043F8040B282AF4D1FF219C481EF0A2F935
:104D7000994D9A499A4EDFF86C82012C00F22481F9
:104D80002B68B361062386F8C030C020FFF78EFE83
:104D90000028FAD1012C07D8A220FFF787FEC0F324
:104DA000031343EA00130B700131414505F104057B
:104DB000E3D18D4B8D48D3F8A015012C01EA0001F9
:104DC00041F4B671C3F8A015D3F8A01589B2C3F8A1
:104DD000A015D3F8A4254FF4BD7102EA000242F4F5
:104DE000C172C3F8A425D3F8A42592B242F0D472BC
:104DF000C3F8A4254FF4D872C3F8A8254FF4B972AC
:104E00007B4BA3F86C2094BF41F2816243F2810294
:104E1000A3F86E200022012CA3F87020A3F87210D2
:104E20009CBF41F68401A3F874104CF28101A3F8F1
:104E30007620A3F87820A3F87A20A3F87C10072125
:104E4000A3F87E10A3F880204FF4C472012CA3F8BD
:104E5000822098BF41F281624FF4C87198BFA3F8D5
:104E600084200022012CA3F88620A3F8881094BF88
:104E700041F6840142F68441A3F88A104FF4CC71C4
:104E8000012CA3F88C20A3F88E20A3F8901094BFD7
:104E90004AF2812148F68101A3F89210A3F89420E8
:104EA0004FF4D0710022A3F89620A3F898104CF28A
:104EB0008101012CA3F89A109CBF0121A3F89C103A
:104EC000012CA3F89E20A3F8A02098BF42F68442AC
:104ED0004CF2810198BFA3F8A2200022A3F8A420DD
:104EE000A3F8A620A3F8A820A3F8AA100821A3F8E5
:104EF000AC104CF60121A3F8AE20A3F8B020A3F823
:104F0000B210A3F8B420A3F8B620BDE8F883D1F816
:104F1000803523F47F0343F4D403C1F88035D1F8FE
:104F2000803523F4F85343F47063C1F88035D1F829
:104F3000803523F0FF0343F02A03C1F88035D1F810
:104F4000903523F07F0343F00803C1F89035D1F882
:104F5000903523F4FE4343F43453C1F89035D1F82F
:104F6000903523F4F81343F40023C1F89035D1F8B9
:104F7000903523F07F43C1F89035D1F8843523F480
:104F80007F0343F4D403C1F88435D1F8843523F486
:104F9000F85343F47063C1F88435D1F8843523F0B5
:104FA000FF0343F02A03C1F88435D1F8943523F088
:104FB0007F0343F00603C1F89435D1F8943523F408
:104FC000FE4343F4A85350E6312F14BF06230323B6
:104FD000D9E600BF4020012040441200E02001201B
:104FE0000000014008210120001000400000FFFFE8
:104FF00000210120F0B50024A44600F1240524314D
:1050000002F1240755F8043D51F8046D9B194CEB4F
:105010000C061B1946F10004A84204F0010447F8ED
:10502000043DEFD1002352F8231011B90133092BAD
:10503000F9D1C3F10903536200239362F0BD70B547
:105040000024264600F12402243152F8043D51F890
:10505000045D5B1946EB06051B1945F100049042FF
:1050600004F001041360F0D1002350F8232012B99A
:105070000133092BF9D1C3F10903436270BDF0B5C7
:1050800000240823274651F8235050F823C0ACEBE6
:1050900004062C19A6EB050647EB0705A44577EB9C
:1050A000050434BF0124002442F82360013BEAD206
:1050B000002352F8231011B90133092BF9D1C3F1A0
:1050C00009035362F0BD0022F0B5174601F1240434
:1050D00000F1240554F8043D55F804CDACEB03066B
:1050E0009B18A6EB020647EB07029C4577EB0203F1
:1050F00034BF01220022A1422E60EBD1002350F8E0
:10510000232012B90133092BF9D1C3F109034362FA
:10511000F0BD000070B504468CB0014601AA0B48F2
:10512000FFF7ADFF234609AE154603CDB542186023
:1051300059602A4603F10803F6D1286818600A9BD3
:1051400063620023A3620CB070BD00BF5C4E12000E
:1051500010B5FFF74FFF936A1446ABB9536A082B9B
:105160000CD816D101230B4A52F8230054F823100F
:1051700088420ED802D30133092BF5D12046BDE871
:1051800010400449FFF79FBF1046BDE81040FFF7ED
:10519000C1BF10BD5C4E1200F0B5826A04468DB0EE
:1051A00072BB1546364E00F1240151F8043D56F805
:1051B00004099B1845EB05021B1842F100028C42C2
:1051C00002F001020B60F0D100210D46221F04F114
:1051D000200652F8043F5B19580840EAC170964215
:1051E000106003F00101F4D1002354F8232012B918
:1051F0000133092BF9D1C3F1090363620DB0F0BD8E
:10520000436A082B23D80BD101231E4A52F82300EE
:1052100054F82310884203D819D30133092BF5D150
:105220002146184801AAFFF72AFF234609AE154672
:1052300003CDB542186059602A4603F10803F6D140
:10524000286818600A9B63620023A362BCE70022FF
:1052500015460B4F04F1240151F8046D57F8043939
:10526000B01AC01A9B1845EB05029E4275EB02036B
:1052700034BF012200228C420860EDD1A4E700BFB8
:105280007C4E12005C4E120070B50446A26A0846BD
:105290008B6A8CB0002A37D17BBB636A4A6A93421F
:1052A00004D813D3C3F10903082B06D901462046BD
:1052B0000CB0BDE87040FFF706BF50F8231054F85B
:1052C0002320914202D8F1D30133EDE7214601AA10
:1052D000FFF7D5FE234609AE154603CDB54218604B
:1052E00059602A4603F10803F6D1286818600A9B22
:1052F00063620123A3620CB070BD014620460CB06E
:10530000BDE87040FFF79BBE002BF6D04B6A626A87
:10531000934204D8CAD3C3F10903082B14D92146F8
:1053200001AAFFF7ACFE234609AE154603CDB542F0
:10533000186059602A4603F10803F6D128681860FE
:105340000A9B63620023D5E754F8231050F823200A
:105350009142ABD8E3D30133DFE70000F8B5876AA9
:1053600003460D4614468E6A002F39D1FEB9426AB3
:10537000496A914204D314D8C2F10902082A07D914
:10538000224629461846FFF77AFE0023A36211E061
:1053900055F8220053F82210884202D8F0D3013287
:1053A000ECE7224619462846FFF769FE1BE0FFF7A7
:1053B00021FE9762636A082B0CD835D101231B4A62
:1053C00052F8230054F8231088422DD802D3013319
:1053D000092BF5D12046BDE8F8401449FFF773BE0C
:1053E00046B9FFF707FE01232046A362BDE8F84057
:1053F000FFF790BE4A6A416A8A4204D810D3C2F1CC
:105400000902082A03D9224619462846BBE753F861
:10541000220055F82210884202D8F4D30132F0E776
:10542000224629461846BFE7F8BD00BF5C4E120071
:105430000022431E934210B5C0F10004C1E90034BC
:105440004B61886018BF09234FF0FF3008BF082365
:10545000C1E90322C1E906000C628A624B6210BDF9
:1054600010B58CB004462422002101A81DF022FEB4
:105470000023CDE90A33A36AABBB636A082B0CD8BF
:1054800033D10123214A52F8230054F823108842D3
:105490002BD802D30133092BF5D1636A082B0BD922
:1054A000C3F1090354F8230001A9FFF7C1FFA36A60
:1054B000EBB92046FFF7E8FEA36A03BB636A082B3B
:1054C0000CD812D10123114A52F8230054F82310AA
:1054D00088420AD802D30133092BF5D120460B4963
:1054E000FFF7F1FD01E0012BD7D00CB010BD002378
:1054F0002046A362FFF7C8FE0123A362DCE7012B6D
:10550000F3D12046FFF706FEEFE700BF5C4E120026
:105510002DE9F04FA1B00DF1300805460C461746B5
:105520000021482240461DF0C5FD0022082091467A
:10553000CDE91E220DF1740C6646002355F82010AB
:1055400004F1240E4A465EF804ADE1FB0A329346AC
:1055500032689B1846F804394BF100037445F1D1C9
:105560000138431CACF1040CE6D14146424600230D
:1055700052F8040B10B90133122BF9D1AA6AA06AB0
:105580000025121A18BF0122C3F112031E931F92A5
:1055900051F8040B08B9092D41D1082B0B9209DCF5
:1055A0000CD10A232F4A52F8230058F823108842BE
:1055B00037D003D258F82530002B36D020AB03EB80
:1055C000850401AE503C0FCC0FC60FCC0FC623682C
:1055D00001AA3360002352F8041B11B90133092BCF
:1055E000F9D1C3F109030A930935112D01A81ED978
:1055F000FFF736FF3A4601AB09AD1C4603CCAC427F
:1056000010605160234602F10802F6D12068106054
:105610000A9B7B620B9BBB6221B0BDE8F08F01351A
:10562000B6E70133122BBED1C4E70135C2E701ACA6
:1056300002AEFFF715FF0FCE0FC496E80F0084E807
:105640000F0058F8253001AA0993002352F8041BD3
:1056500011B90133092BF9D1C3F109030A930135BB
:10566000C3E700BF584F12000023F0B404461046B1
:105670009C4604F1240200F12405674652F8046DAB
:10568000E6FB0137A24245F8043D3B46F5D1002335
:1056900050F8232012B90133092BF9D1C3F10903C2
:1056A0004362A36AF0BC8362FFF7DABE002310B541
:1056B00050F8234051F82320944204D10133092BA0
:1056C000F6D1002010BD0120FCE70000F0B5036D0D
:1056D0000546012B0C46FBB000F12C0600F15807E3
:1056E00001D8C36C8BB128465E49FFF7DFFF002865
:1056F00047D130462C31FFF7D9FF002841D1384639
:105700002C31FFF7D3FF00283BD12346554A02F145
:105710002006154603CDB542186059602A4603F1AC
:105720000803F6D12868504A1860002302F12006C9
:10573000C4E9093304F12C03154603CDB5421860C2
:1057400059602A4603F10803F6D12868012218603F
:105750000023C4E91423454A04F1580302F120064A
:10576000154603CDB542186059602A4603F1080377
:10577000F6D1286818600023C4E91F3300207BB0ED
:10578000F0BD3946284659AAFFF7E2FC39462846BB
:1057900064AAFFF7E3FD6FAA64A959A8FFF7B8FE52
:1057A00001AA6FA80321FFF75FFF394630460CAA14
:1057B000FFF7AEFE30466FAA0CA9FFF7A9FE2846F8
:1057C00017AA6FA9FFF7A4FE01A9084664AAFFF76C
:1057D0009FFE6FAA17A80821FFF746FF22AA6FA90C
:1057E00064A8FFF7BBFD6FAA0CA922A8FFF790FEE3
:1057F00022466FA80221FFF737FF3146304638AA0C
:10580000FFF786FE0CA908462DAAFFF781FE43AAE2
:105810002DA938A8FFF77CFE4EAA43A80821FFF760
:1058200023FF59AA17A80421FFF71EFF64AA22A983
:1058300059A8FFF793FD6FAA64A901A8FFF768FEB6
:1058400004F12C024EA96FA8FFF788FD6FAA0CA9DE
:105850002DA8FFF75DFE082104F158026FA8FFF79D
:1058600003FF8BE7B44E1200E04E12000C4F120003
:105870002DE9F04F144600258246ADF5297D00F153
:105880002C0324220F4600F1580901F12C0B20466D
:1058900001F1580804F12C06002101931DF00AFCC7
:1058A000242229463046C4E909551DF003FC04F1C1
:1058B0005803184624222946C4E9145500931DF0C4
:1058C000F9FB24222946C4E91F5503A81DF0F2FB69
:1058D000242229460EA8CDE90C551DF0EBFB24220D
:1058E000294619A8CDE917551DF0E4FB24222946C5
:1058F00024A8CDE922551DF0DDFB242229462FA83E
:10590000CDE92D551DF0D6FB242229463AA8CDE934
:1059100038551DF0CFFB2422294645A8CDE9435533
:105920001DF0C8FB2422294650A8CDE94E551DF094
:10593000C1FB242229465BA8CDE959551DF0BAFBCD
:105940002422294666A8CDE964551DF0B3FB242224
:10595000294671A8CDE96F551DF0ACFB29462422DC
:105960007CA8CDE97A551DF0A5FB50469C49CDE9B0
:105970008555FFF79BFE00287ED12C310AF12C00C3
:10598000FFF794FE002877D148462C31FFF78EFEB2
:10599000002871D138465839FFF788FE00283FD1DA
:1059A00058462C31FFF782FE002839D140462C3171
:1059B000FFF77CFE024698BB2346A1F1580CA1F1EB
:1059C000380E674603CF774518605960BC4603F12F
:1059D0000803F6D138681860824B03F1200C1F468B
:1059E00003CF6745306071603B4606F10806F6D18B
:1059F00001233868306023657B4B009D03F120064E
:105A00001C4603CCB44228606960234605F10805B2
:105A1000F6D11868286010460DF5297DBDE8F08F95
:105A20003B46224607F1240153F8040B8B4242F80F
:105A3000040BF9D1DA467B6A6362BB6AA3620BF19D
:105A400024035AF8042B9A4546F8042BF9D13B6DF0
:105A5000009D23657B6D636508F1240358F8042BD2
:105A6000984545F8042BF9D1FB6FE367D7F88030F0
:105A7000C4F880300022CEE738465949FFF716FEB9
:105A800000283BD158462C31FFF710FEB0BB4046F2
:105A90002C31FFF70BFE024680BB514620460AF12F
:105AA000240751F804CBB94240F804CBF9D1DAF815
:105AB0002410DDF804B06162DAF82810A1620BF15D
:105AC00024015BF8040B8B4546F8040BF9D1DAF896
:105AD0005010009D2165DAF85410616509F1240128
